:100000000EC028C027C069C125C024C023C022C09B
:1000100021C020C01FC01EC01DC01CC01BC0112499
:100020001FBECFE5D2E0DEBFCDBF10E0A0E6B0E05E
:10003000E4E4F6E002C005900D92AE36B107D9F7C0
:1000400020E0AEE6B0E001C01D92A637B207E1F7AE
:10005000CFD1F6C2D5CF88B3856088BB00C0000081
:1000600088B38E7F88BB00C0000088B38B7F88BBBD
:10007000089588B38E7F88BB88B3846088BB00C036
:10008000000088B3816088BB00C00000089520E0B4
:1000900030E016C0882324F498B3916098BB03C065
:1000A00098B39E7F98BB880F98B3946098BB00C0AC
:1000B000000098B39B7F98BB00C000002F5F3F4FAC
:1000C000283031053CF388B3816088BB87B38E7FCD
:1000D00087BB88B3846088BB00C0000088B38B7F77
:1000E00088BB87B3816087BB08950F931F93CF931D
:1000F000DF938C01EB01AFDF88E4C9DFC295D295B5
:10010000D07FDC27C07FDC2781E0012B09F480E071
:100110008C2BBDDFAEDFDF91CF911F910F91089542
:10012000CF93DF93C82FD62F96DF8C2F880F885957
:10013000AEDF8D2FACDF9DDFDF91CF9108958F92E1
:100140009F92AF92BF92CF92DF92EF92FF921F9356
:10015000CF93DF934B015C010F2EFAE0CF2ED12C11
:10016000E12CF12CF02DA701960148D2C62FCA012F
:10017000B901A701960142D2D62FC501B40124E6E8
:1001800030E040E050E03AD2CA01B90126E030E068
:1001900040E050E033D2162FC501B40128E532E02B
:1001A00040E050E02BD2CA01B901A701960126D246
:1001B000E62FF0E0EC59FF4F608180E090E0B0DF87
:1001C000E12FF0E0EC59FF4F608181E090E0A8DF83
:1001D000ED2FF0E0EC59FF4F6081606882E090E025
:1001E0009FDFEC2FF0E0EC59FF4F608183E090E05F
:1001F00097DFDF91CF911F91FF90EF90DF90CF902D
:10020000BF90AF909F908F90089520E030E010C095
:1002100098B3906198BB92E49A95F1F700C098B3B7
:100220009F7E98BB92E49A95F1F700C02F5F3F4FF5
:10023000482F50E0241735075CF30895CF93DF93E0
:10024000C0E0D0E004C060E0CE016ADF2196C43097
:10025000D105CCF384E6D9DFC0E0D0E004C06FE381
:10026000CE015EDF2196C430D105CCF387EA91E65A
:100270000197F1F700C00000DF91CF91089583E06E
:1002800087B983E886B9089586B1806486B93699BE
:10029000FECF84B195B10895B19B15C0F5DF873BC2
:1002A00023E0920790F48233910588F09C01245654
:1002B0003109283C310568F0805991408C329140D9
:1002C00050F482E0089584E0089580E0089581E08C
:1002D000089583E0089580E008951F920F920FB66D
:1002E0000F9211242F938F939F93AF93BF9380917D
:1002F0007000882309F462C080916E0081115EC095
:10030000809171008F5F80937100809171008A30BD
:1003100008F454C01092710080916F00811129C0BF
:100320008091720090917300A0917400B09175005B
:100330000196A11DB11D8093720090937300A0934C
:100340007400B09375008091720090917300A09139
:100350007400B091750080379741A105B10570F127
:100360001092720010927300109274001092750037
:1003700025C08091600090916100A0916200B091D1
:100380006300892B8A2B8B2BA1F0809160009091C8
:100390006100A0916200B09163000197A109B109C9
:1003A0008093600090936100A0936200B09363001B
:1003B00005C01092700081E080936E00BF91AF91F4
:1003C0009F918F912F910F900FBE0F901F901895B6
:1003D00010BE1FBC80B7806880BF80B7876080BFB9
:1003E0008CE98DBD8EBD89B7806489BF78940895EE
:1003F00087B3856087BB88B3856088BB87B380611E
:1004000087BB87B38D7F87BB88B3826088BB87EA51
:1004100091E60197F1F700C0000065E070E081E02F
:1004200090E063DED5DF2BDF0F2EFFE98F2EF6E89D
:100430009F2EAA24A394B12CF02D80916E008823C6
:1004400041F1FCDE29DF8330C1F783ED90E30197B2
:10045000F1F700C0000020DF833079F710926E00C2
:1004600088E592E0A0E0B0E08093600090936100A6
:10047000A0936200B093630060916000709161008E
:1004800080916200909163005ADE06DF8111FDCFFA
:10049000D4CF02DFC82F882309F48AC08BE49DE102
:1004A0000197F1F700C00000F7DEC81381C080910A
:1004B0006F00811119C0C13021F481E08093700078
:1004C00055C0C23019F41092700050C0C33009F00A
:1004D0004DC010927200109273001092740010922E
:1004E00075001092700042C0C13091F5809170008B
:1004F00081113CC08091600090916100A0916200E8
:10050000B09163008C599F4FAF4FBF4F80936000F5
:1005100090936100A0936200B093630080916000AB
:1005200090916100A0916200B09163008137974182
:10053000A105B105D8F084E690E0A0E0B0E080939A
:10054000600090936100A0936200B09363000EC0BE
:10055000C23021F481E08093700008C0C33031F4D0
:100560009091700081E0892780937000C430E9F495
:100570001092700090916F0081E0911180E0809363
:100580006F0010927200109273001092740010921B
:10059000750088E592E0A0E0B0E080936000909361
:1005A0006100A0936200B093630076DE8111FDCFFD
:1005B00080916F00811109C0C0907200D0907300CB
:1005C000E0907400F090750008C0C0906000D0907A
:1005D0006100E0906200F09063008C149D04AE0412
:1005E000BF0429F0C701B601AADD4601570183EC1B
:1005F00099E00197F1F700C000001FCFA1E21A2E89
:10060000AA1BBB1BFD010DC0AA1FBB1FEE1FFF1FB6
:10061000A217B307E407F50720F0A21BB30BE40B06
:10062000F50B661F771F881F991F1A9469F760954D
:100630007095809590959B01AC01BD01CF01089507
:04064000F894FFCF5C
:0E064400580200003F065B4F666D7D077F6F1A
:00000001FF
