:1000000030C048C047C046C045C044C043C042C0DD
:1000100041C040C03FC03EC03DC03CC03BC03AC0F4
:1000200039C038C037C036C035C014C119C120C16D
:1000300027C12EC12DC12CC12BC12CC113C11AC186
:1000400021C126C125C124C123C106C10DC114C1CE
:100050001BC11EC11DC11CC11BC100C107C10EC1F6
:1000600015C111241FBECFEDCDBF10E0A0E6B0E05A
:10007000E0EEF7E002C005900D92A437B107D9F782
:1000800020E0A4E7B0E001C01D92A638B207E1F776
:100090008BD2A4C3B5CF83E08A95F1F70000089511
:1000A00087B38A7F87BB88B3856088BBF4DF87B35B
:1000B000816087BB88B38E7F88BBEDDF87B38460A8
:1000C00087BB88B38B7F88BB089587B3816087BB6C
:1000D00088B38E7F88BBDFDF87B38B7F87BB88B316
:1000E000846088BBD8DF87B38E7F87BB88B381608D
:1000F00088BBD1DF08951F93CF93DF93182FC0E003
:10010000D0E020C011233CF487B38E7F87BB88B337
:10011000816088BB06C087B3816087BB88B38E7F50
:1001200088BB110FB8DF87B38B7F87BB88B3846030
:1001300088BBB1DF87B3846087BB88B38B7F88BB04
:10014000AADF2196C830D105ECF287B38E7F87BB3A
:1001500088B3816088BB9FDF87B38B7F87BB88B301
:10016000846088BB98DF87B3846087BB88B38B7F4C
:1001700088BB91DF87B3816087BBDF91CF911F91EF
:1001800008951F93CF93DF9387B38E7F87BB88B388
:10019000816088BBC0E0D0E010E012C07CDF87B394
:1001A0008B7F87BB88B3846088BB75DF110FB099E4
:1001B000116087B3846087BB88B38B7F88BB21962F
:1001C000C830D1055CF387B38E7F87BB88B381606D
:1001D00088BB61DF87B38B7F87BB88B3846088BBB4
:1001E0005ADF87B3846087BB88B38B7F88BB53DFBC
:1001F00087B3816087BB812FDF91CF911F910895D5
:100200004FDF88E478DF81E376DF5FDF0895CF9307
:10021000DF93C82FD62F44DF8C2F880F88596BDFD0
:100220008D2F69DF52DFDF91CF910895CF9338DFB3
:100230008FE461DFA6DFC82F48DF8C2FCF910895B0
:1002400090E0FC01E454F109EC31F10508F5EB5EB6
:10025000FF4F099481E0089583E0089584E00895B4
:1002600085E0089586E0089587E0089588E0089580
:1002700089E008958AE008958BE008958CE0089560
:100280008DE008958EE008958FE0089580E108954F
:1002900080E0089582E00895009741F4109276007E
:1002A0001092750088B3877F88BB0895803D27E052
:1002B000920721F481E08093740011C0883E23E00E
:1002C000920721F482E08093740009C0843F91403A
:1002D00021F483E08093740002C010927400CB017B
:1002E00064E170E05AD27093760060937500672BDA
:1002F00031F481E090E0909376008093750008954A
:10030000E82F8091750090917600892B19F020914B
:1003100074001DC080917700843049F4809178008A
:100320009091790069E170E038D20D9778F488B344
:10033000877F88BB80E007C0A9EFB0E01197F1F795
:1003400000C000008F5F8E17B8F3089522E02230BE
:1003500039F0233041F0213049F040E050E008C04E
:1003600048EE53E005C040ED57E002C044EF51E0D5
:100370004115510509F054C088B3877F88BB80E0E0
:1003800007C0A9EFB0E01197F1F700C000008F5F40
:100390008E17B8F30895223099F0233001F12130FF
:1003A00089F538B3386038BBB3E5BA95F1F700008A
:1003B00038B3377F38BB33E53A95F1F7000023C0F7
:1003C00038B3386038BBA6EAAA95F1F700C038B355
:1003D000377F38BBB6EABA95F1F700C014C038B31E
:1003E000386038BBA9EFB0E01197F1F700C000000A
:1003F00038B3377F38BBA9EFB0E01197F1F700C0F1
:10040000000001C00000840F951F02C080E090E052
:10041000883EB3E09B0708F4BECF6F5F7F4F02C0FA
:1004200060E070E08E2F90E0681779077CF3089504
:100430000F931F93CF93DF93CDB7DD27C450CDBF6C
:100440008091780090917900009709F461C0209123
:1004500077002430F9F469E170E09FD10D9768F0DE
:1004600069E780E0D4DE69E781E0D1DE69E782E018
:10047000CEDE6DE683E0CBDE7DC060E080E0C7DEEF
:1004800060E081E0C4DE60E082E0C1DE60E083E045
:10049000BEDE70C0213049F480E189838BE08A831D
:1004A0008CE08B838DE08C8313C0223049F48CE088
:1004B00089838EE08A838FE08B838DE08C8308C0F4
:1004C0006AE069836A836B8380917C005AD19C8344
:1004D00000E010E00FC0E1E0F0E0EC0FFD1FE00FE6
:1004E000F11FE081F0E0E05AFF4F6081802F8FDE46
:1004F0000F5F1F4F0430110574F33CC0E1E0F0E0E2
:10050000EC0FFD1FE80FF91F20E42083019602C0C5
:1005100080E090E0843091058CF380E090E013C09F
:10052000843091057CF4FC01EE57FF4FE081F0E050
:10053000E05AFF4F2081E1E0F0E0EC0FFD1FE80FF3
:10054000F91F208301962091810030E082179307E4
:100550003CF300E010E00BC0E1E0F0E0EC0FFD1F29
:10056000E00FF11F6081802F52DE0F5F1F4F0430BC
:10057000110594F345DECC5FCDBFDF91CF911F9184
:100580000F9108958093770084E690E0909379002E
:10059000809378001092810084E0E2E8F0E0DF01CF
:1005A0001D928A95E9F7089587B3886087BB88B361
:1005B000877F88BB87B3856087BB88B3856088BB2E
:1005C0008FE493EC0197F1F700C0000019DE30DFF3
:1005D000D0E001C0DC2F84E193DE8091780090911F
:1005E0007900009729F00197909379008093780023
:1005F00080917A0090917B00009729F00197909369
:100600007B0080937A00809175009091760000972E
:1006100029F00197909376008093750009DF06DE3C
:10062000C82F00C000C0000001DEC81304C08C2F1A
:1006300007DEC82F01C0C0E0CC2309F48CC0DC1752
:1006400009F489C08091780090917900892B49F054
:10065000109279001092780060E070E080E090E005
:100660001BDE80E991E090937B0080937A008FEF0E
:100670008C0F8A3098F4E0918100E43008F06BC070
:1006800081E08E0F80938100F0E0CA3011F480E0A9
:1006900001C08C2FEE57FF4F80835DC0CB3049F4F3
:1006A00080918100882309F456C081508093810095
:1006B00052C0CC3089F580918100843009F04BC064
:1006C00044E050E06DE770E082E890E07AD0892B5A
:1006D00051F410927C0066E970E080ED97E0DCDD7B
:1006E00081E050DF38C080917C008F5F80937C0078
:1006F000853050F060E070E080E090E0CDDD84E097
:1007000041DF10927C0027C066E970E084EF91E041
:10071000C3DD83E037DF1FC0CD30E9F48091810075
:100720008430C9F48091820090918300A09184006C
:10073000B091850080937D0090937E00A0937F0010
:10074000B093800066E970E088EE93E0A5DD82E07A
:1007500019DF10927C008091780090917900892BAC
:1007600009F038CF80918100882309F433CF80913C
:100770007A0090917B00892B09F02CCF1092810098
:1007800029CF991B79E004C0991F961708F0961B92
:10079000881F7A95C9F780950895AA1BBB1B51E164
:1007A00007C0AA1FBB1FA617B70710F0A61BB70BE1
:1007B000881F991F5A95A9F780959095BC01CD0186
:1007C0000895FB01DC0104C08D910190801921F492
:1007D00041505040C8F7881B990B0895F894FFCFFB
:1007E0003F065B4F666D7D077F6F793E39007677F8
:0407F0006D407F00D9
:00000001FF
